:020000040800F2
:1000000000000220ED190008DD040008DF040008EC
:10001000E1040008E3040008E50400080000000013
:10002000000000000000000000000000E7040008DD
:10003000E904000800000000EB040008ED040008DB
:100040003D1A00083D1A00083D1A00083D1A000834
:100050003D1A00083D1A00083D1A00083D1A000824
:100060003D1A00083D1A00083D1A00083D1A000814
:100070003D1A00083D1A00083D1A00083D1A000804
:100080003D1A00083D1A00083D1A00083D1A0008F4
:100090003D1A00083D1A00083D1A00083D1A0008E4
:1000A0003D1A00083D1A00083D1A00083D1A0008D4
:1000B0003D1A00083D1A00083D1A00083D1A0008C4
:1000C0003D1A00083D1A00083D1A00083D1A0008B4
:1000D0003D1A0008F50400083D1A00083D1A000802
:1000E0003D1A00083D1A00083D1A00083D1A000894
:1000F0003D1A00083D1A00083D1A00083D1A000884
:100100003D1A00083D1A00083D1A00083D1A000873
:100110003D1A00083D1A00083D1A00083D1A000863
:100120003D1A00083D1A00083D1A00083D1A000853
:100130003D1A000800000000000000003D1A000801
:100140003D1A00083D1A00083D1A00083D1A000833
:100150003D1A00083D1A00083D1A00083D1A000823
:100160003D1A00083D1A00083D1A00083D1A000813
:100170003D1A00083D1A00083D1A00080000000062
:10018000000000003D1A0008000000000000000010
:100190003D1A000800000000000000003D1A0008A1
:1001A0000000000000000000000000003D1A0008F0
:1001B0003D1A00083D1A00083D1A00083D1A0008C3
:0401C0003D1A0008DC
:1001C40053B94AB9002908BF00281CBF4FF0FF31BA
:1001D4004FF0FF3000F00CB8ADF1080C6DE904CE1F
:1001E40001F058FCDDF804E0DDE9022304B07047B7
:1001F400704700BF0348044B834202D0034B03B152
:10020400184770471C0000201C000020000000005C
:100214000548064B1B1AD90F01EBA301491002D064
:10022400034B03B1184770471C0000201C0000203A
:100234000000000010B5064C237843B9FFF7DAFF3D
:10024400044B13B10448AFF300800123237010BDA5
:100254001C00002000000000541D000808B5054BD8
:100264001BB105490548AFF30080BDE80840FFF71E
:10027400CFBF00BF0000000020000020541D000874
:1002840030B589B00024039404940594069407942B
:100294000094184B1A6B42F004021A631A6B02F0B2
:1002A40004020092009A01941A6B42F080021A63CD
:1002B4001A6B02F080020192019A02941A6B42F0C6
:1002C40001021A631B6B03F001030293029B0A4DA4
:1002D40022462021284601F011FA2023039301230A
:1002E40004930594069403A9284601F017F909B06C
:1002F40030BD00BF00380240000002400368174AC6
:10030400934200D0704710B5154A12788A2A06D84D
:100314005968501C124B1870124B23F81210104BD2
:100324001A78511E0F4B33F811300A2B09D00C4B9D
:10033400197801220B4B03EB41010B4800F011FD2E
:1003440010BD0849002421F812404FF0FF3307483C
:1003540000F0B7FA024B1C70E9E700BF001001403F
:10036400380000203C0000200C010020C8000020C0
:1003740072B6FEE708B50A480A4B03604FF4E1334E
:10038400436000238360C36003610C224261836184
:10039400C36100F067FA00B908BDFFF7E9FF00BFC9
:1003A4000C0100200010014008B50A480A4B036004
:1003B4004FF4E133436000238360C36003610C2284
:1003C40042618361C36100F04DFA00B908BDFFF7D3
:1003D400CFFF00BFC80000200044004000B595B026
:1003E4003422002107A801F028FB00230293039381
:1003F4000493059306930093234A116C41F08051B2
:100404001164126C02F080520092009A01931F4B07
:100414001A6842F440421A601B6803F44043019393
:10042400019B012307934FF48033089302230D9318
:100434004FF480020E9204220F92B4221092119370
:100444001293139307A800F047FEB0B901F0BAF96C
:10045400A8B90F23029302230393002304934FF4B8
:10046400A05305934FF480530693052102A800F08E
:1004740095FC30B915B05DF804FBFFF779FFFFF781
:1004840077FFFFF775FF00BF00380240007000409F
:1004940008B501F073FAFFF7A1FFFFF7F1FEFFF7CC
:1004A40069FFFFF781FF084C0A23122207492046FF
:1004B40000F007FA064B19788C22064B03EB410136
:1004C400204600F04EFCFEE70C0100200000002056
:1004D400380000203C000020FEE7FEE7FEE7FEE7D0
:1004E400FEE770477047704708B501F061FA08BD30
:1004F40008B5024800F0DAFA08BD00BF0C0100207C
:1005040000B583B0002100910C4B5A6C42F4804238
:100514005A645A6C02F480420092009A01911A6C57
:1005240042F080521A641B6C03F080530193019BC8
:10053400072001F0B9F903B05DF804FB003802406C
:1005440010B58AB000230593069307930893099383
:1005540003682C4A934204D02B4A93422ED00AB00B
:1005640010BD00240194294B5A6C42F010025A64C5
:100574005A6C02F010020192019A02941A6B42F032
:1005840001021A631B6B03F001030293029B4FF4F5
:10059400C063059302230693079303230893072359
:1005A400099305A91A4800F0B9FF224621462520DF
:1005B40001F08CF9252001F099F9D0E7002103918D
:1005C400124B1A6C42F400321A641A6C02F40032B0
:1005D4000392039A04911A6B42F001021A631B6B93
:1005E40003F001030493049B0C2305930223069355
:1005F400032308930723099305A9054800F08EFFF8
:10060400ADE700BF00100140004400400038024044
:1006140000000240026802F10C0353E8003F23F497
:1006240090730C3242E800310029F3D1026802F1E0
:10063400140353E8003F23F00103143242E800316D
:100644000029F3D1036B012B05D0202380F83E3021
:10065400002303637047026802F10C0353E8003F70
:1006640023F010030C3242E800310029F3D1ECE707
:1006740090F83D30DBB2212B01D002207047836813
:10068400B3F5805F17D0036A5A1C02621A780368B4
:100694005A60C38C9BB2013B9BB2C3844BB90268C2
:1006A400D36823F08003D3600268D36843F0400327
:1006B400D360002070470369002BE4D1036A1B88D0
:1006C4000268C3F308035360036A02330362E0E77A
:1006D40010B504460268136923F44053C1680B4300
:1006E4001361836802691A4343691A43C3691A434D
:1006F4000168CB6823F4164323F00C031343CB6047
:100704000268536923F4407381690B43536103689E
:10071400314A934206D002F58062934202D000F03F
:10072400F3FB01E000F000FCE369B3F5004F29D0CE
:100734000021031849411B1841F10001C90041EA95
:100744005371DB00181863684FEA83024FEA93730E
:1007540041F10001FFF734FD204AA2FB00314909B1
:10076400642303FB11031B013233A2FB03235B0944
:1007740003F0F00202EB011203F00F0321681344AB
:100784008B6010BD0023021843EB0301121841F1E2
:100794000001C90041EA5271D200101841F1000170
:1007A400626892185B41FFF70BFD0C4AA2FB003113
:1007B4004909642303FB1103DB003233A2FB032347
:1007C4005B095A0002F4F87202EB011203F007030A
:1007D400216813448B60D4E7001001401F85EB515E
:1007E4002DE9F84305460F4616469946DDF8208064
:1007F4002B681C6837EA04040CBF01240024B442AB
:100804002DD1B8F1FF3FF3D0B8F1000F05D001F0BE
:10081400DBF8A0EB09004045EAD92A6802F10C0391
:1008240053E8003F23F4D0730C3242E8003100292E
:10083400F3D12A6802F1140353E8003F23F00103C3
:10084400143242E800310029F3D1202385F83D30E9
:1008540085F83E30002385F83C30032000E000207A
:10086400BDE8F88358B310B5044690F83D300BB397
:10087400242384F83D302268D36823F40053D360E2
:100884002046FFF725FF2268136923F49043136180
:100894002268536923F02A0353612268D36843F41E
:1008A4000053D36000202064202384F83D3084F872
:1008B4003E3010BD80F83C30FFF742FED8E70120FF
:1008C40070472DE9F04182B01E4690F83D30DBB20E
:1008D400202B54D104460D469046002953D0002ABB
:1008E40053D090F83C30012B51D0012380F83C3098
:1008F40000230364212380F83D3001F065F80746A6
:10090400A4F82480A4F82680A368B3F5805F05D0FA
:100914004FF00008002384F83C3012E0236913B13F
:100924004FF00008F6E7A8460025F3E738F8023B45
:100934002268C3F308035360E28C92B2013A92B284
:10094400E284E38C9BB273B100963B460022802183
:100954002046FFF745FFE0B9002DE7D015F8012B3D
:1009640023685A60E8E700963B460022402120466F
:10097400FFF736FF78B9202384F83D3000E00220E9
:1009840002B0BDE8F0810120FAE70120F8E7022077
:10099400F6E70320F4E70320F2E7704708B501689F
:1009A400CA6822F04002CA60202280F83D20FFF786
:1009B400F4FF002008BD704708B5806B0023C38591
:1009C400C384FFF7F8FF08BD704790F83E30DBB2F0
:1009D400222B67D18368B3F5805F4DD0826AB3F56B
:1009E400805F04D0002B54D10369002B51D10368DC
:1009F4005B681370836A01338362C38D9BB2013BCE
:100A04009BB2C385002B4FD100B583B00268D36875
:100A140023F02003D3600268D36823F48073D36087
:100A24000268536923F001035361202380F83E30A8
:100A3400036B012B33D100230363026802F10C031F
:100A440053E8003F23F010030C3242E80031002940
:100A5400F3D103681A6812F0100F06D00022019235
:100A64001A6801925B680193019B818DFFF7ACFFCB
:100A7400002003B05DF804FB0269002AAED1826A4B
:100A840003685B68C3F308031380836A02338362D9
:100A9400B3E703685B6803F07F031370AAE7FFF70B
:100AA4002DFCE5E7022070470020704710B582B0A6
:100AB400044602681368D068516913F00F0F09D116
:100AC40013F0200F0CD010F0200F09D02046FFF7B0
:100AD4007CFF16E011F0010115D110F4907F12D1C2
:100AE400216B012979D013F0800F03D010F0800F0F
:100AF40040F0108113F0400F03D010F0400F40F08D
:100B04000D8102B010BD13F0010F06D010F4807FE8
:100B140003D0226C42F00102226413F0040F04D0CB
:100B240019B1226C42F00202226413F0020F04D0C5
:100B340019B1226C42F00402226413F0080F07D0AA
:100B440010F0200F00D119B1226C42F00802226487
:100B5400226C002AD5D013F0200F02D010F0200F01
:100B640029D123685B6903F04003226C12F0080F5B
:100B740000D163B32046FFF74DFD23685B6913F092
:100B8400400F20D0226802F1140353E8003F23F001
:100B94004003143242E800310029F3D1A36B73B14E
:100BA400604A1A65A06B00F0F9FD0028A9D0A06B7B
:100BB400036D9847A5E72046FFF707FFD1E72046D6
:100BC400FFF7F9FE9DE72046FFF7F5FE99E720467B
:100BD400FFF7F1FE0023236493E713F0100F82D094
:100BE40010F0100F3FF47FAF0023019313680193BB
:100BF40053680193019B536913F0400F50D0A26BCB
:100C040013685B689BB2002B3FF47BAFA18D9942C4
:100C14007FF677AFE385D369B3F5807F37D0226859
:100C240002F10C0353E8003F23F480730C3242E8D2
:100C340000310029F3D1226802F1140353E8003F84
:100C440023F00103143242E800310029F3D1226871
:100C540002F1140353E8003F23F04003143242E846
:100C640000310029F3D1202384F83E30002323638C
:100C7400226802F10C0353E8003F23F010030C3206
:100C840042E800310029F3D1A06B00F03DFDA18DB5
:100C9400E38D9BB2C91A89B22046FFF795FE30E76F
:100CA400A18DE38D9BB2C91A89B2E38D9BB2002B4F
:100CB4003FF427AF00293FF424AF226802F10C036C
:100CC40053E8003F23F490730C3242E800300028CC
:100CD400F3D1226802F1140353E8003F23F0010327
:100CE400143242E800300028F3D1202384F83E3047
:100CF40000232363226802F10C0353E8003F23F02E
:100D040010030C3242E800300028F3D12046FFF7EC
:100D14005BFEF6E62046FFF7ABFCF2E62046FFF763
:100D24003DFEEEE6BD09000881628285C28500238E
:100D34000364222280F83E2080F83C30036923B10A
:100D44000268D36843F48073D3600268536943F044
:100D5400010353610268D36843F02003D360002089
:100D6400704708B590F83E30DBB2202B0DD171B13D
:100D74007AB190F83C30012B0DD0012380F83C303F
:100D840000230363FFF7D0FF00E0022008BD012029
:100D9400FCE70120FAE70220F8E70000002800F051
:100DA4009B8070B50D4604464F4B1B6803F00F0340
:100DB4008B4208D2CBB24C4A1370136803F00F0372
:100DC4008B4240F08B80236813F0020F17D013F08E
:100DD400040F04D0454A936843F4E05393602368B6
:100DE40013F0080F04D0414A936843F460439360BE
:100DF4003E4A936823F0F003A1680B439360236891
:100E040013F0010F32D06368012B21D09A1E012AFE
:100E140025D9364A126812F0020F61D033498A6824
:100E240022F0030213438B6000F0CEFD06462F4BE5
:100E34009B6803F00C036268B3EB820F16D000F0DA
:100E4400C3FD801B41F288339842F0D9032042E06D
:100E5400264A126812F4003FE0D101203BE0234A05
:100E6400126812F0007FD9D1012034E01E4B1B68B8
:100E740003F00F03AB4207D9EAB21B4B1A701B688D
:100E840003F00F03AB422DD1236813F0040F06D0F7
:100E9400164A936823F4E053E1680B439360236894
:100EA40013F0080F07D0114A936823F460432169B3
:100EB40043EAC103936000F047F80C4B9B68C3F30B
:100EC40003130B4AD35CD8400A4B18600A4B1868CA
:100ED40000F02EFD002070BD012070470120FAE7CC
:100EE4000120F8E70120F6E7003C02400038024008
:100EF400741D00081800002014000020014B18681D
:100F0400704700BF1800002008B5FFF7F7FF044B37
:100F14009B68C3F38223034AD35CD84008BD00BF57
:100F2400003802406C1D000808B5FFF7E7FF044BCA
:100F34009B68C3F34233034AD35CD84008BD00BF67
:100F4400003802406C1D000808B5604B9B6803F034
:100F54000C03082B07D00C2B5FD0042B01D05C486A
:100F640008BD5C48FCE7594B5A6802F03F025B68D5
:100F740013F4800F2CD0554B5868C0F388104FEAF7
:100F8400401CBCEB000C6EEB0E0E4FEA8E1343EAD2
:100F94009C634FEA8C11B1EB0C0163EB0E03DB0095
:100FA40043EA5173C90011EB000C43F100035902E9
:100FB40000234FEA4C2041EADC51FFF701F9434B8F
:100FC4005B68C3F3014301335B00B0FBF3F0C7E795
:100FD4003E4B5868C0F388104FEA401CBCEB000C31
:100FE4006EEB0E0E4FEA8E1343EA9C634FEA8C11AC
:100FF400B1EB0C0163EB0E03DB0043EA5173C90050
:1010040011EB000C43F10003990200234FEA8C20FA
:1010140041EA9C51FFF7D4F8D1E72C4B5A6802F00F
:101024003F025B6813F4800F2AD0284B5868C0F342
:1010340088104FEA401CBCEB000C6EEB0E0E4FEA1E
:101044008E1343EA9C634FEA8C11B1EB0C0163EB02
:101054000E03DB0043EA5173C90011EB000C43F1AA
:101064000003590200234FEA4C2041EADC51FFF708
:10107400A7F8164B5B68C3F30273B0FBF3F06FE79A
:10108400124B5868C0F388104FEA401CBCEB000CAC
:101094006EEB0E0E4FEA8E1343EA9C634FEA8C11FB
:1010A400B1EB0C0163EB0E03DB0043EA5173C9009F
:1010B40011EB000C43F10003990200234FEA8C204A
:1010C40041EA9C51FFF77CF8D3E700BF00380240A7
:1010D4000024F40000127A00002800F0018270B5A8
:1010E40082B00446036813F0010F41D0994B9B680A
:1010F40003F00C03042B32D0964B9B6803F00C03D3
:10110400082B27D0934B9B6803F00C030C2B59D06E
:101114006368B3F5803F5BD0B3F5A02F5ED08D4BF1
:101124001A6822F480321A601A6822F480221A6043
:101134006368002B5CD000F047FC0546854B1B68B8
:1011440013F4003F14D100F03FFC401B6428F5D990
:101154000320CCE17F4B5B6813F4800FD2D07D4B2E
:101164001B6813F4003F03D06368002B00F0BA81BE
:10117400236813F0020F60D0764B9B6813F00C0FBA
:101184004AD0744B9B6803F00C03082B3FD0714B7F
:101194009B6803F00C030C2B69D0E368002B75D01B
:1011A4006D4B01221A6000F00FFC0546694B1B6869
:1011B40013F0020F61D100F007FC401B0228F5D99F
:1011C400032094E1634B5B6813F4800FA0D0C6E75F
:1011D400604A136843F480331360A9E75D4B1A68CF
:1011E40042F480221A601A6842F480321A609FE73F
:1011F40000F0EAFB0546574B1B6813F4003FB7D0D9
:1012040000F0E2FB401B6428F5D903206FE1514B49
:101214005B6813F4800FBAD14E4B1B6813F0020FB6
:1012240003D0E368012B40F05F814A4A136823F03E
:10123400F803216943EAC1031360236813F0080F1C
:1012440049D06369002B33D0434B0122C3F8802E6D
:1012540000F0BAFB05463F4B5B6F13F0020F3AD127
:1012640000F0B2FB401B0228F5D903203FE1394BC3
:101274005B6813F4800F90D1CEE7364A136823F0ED
:10128400F803216943EAC1031360D6E7324B002215
:101294001A6000F099FB05462E4B1B6813F0020FF1
:1012A400CBD000F091FB401B0228F5D903201EE1AE
:1012B400294B0022C3F8802E00F086FB0546254BFF
:1012C4005B6F13F0020F06D000F07EFB401B022878
:1012D400F5D903200BE1236813F0040F76D01D4BDE
:1012E4001B6C13F0805F33D100230193194B1A6CEC
:1012F40042F080521A641B6C03F080530193019BEB
:101304000125164B1B6813F4807F29D0A368012B99
:101314003AD0052B3ED00F4B1A6F22F001021A6708
:101324001A6F22F004021A67A368002B3CD000F065
:101334004BFB0646074B1B6F13F0020F45D100F021
:1013440043FB801B41F288339842F3D90320CEE05B
:101354000025D6E7003802400000474200700040F4
:101364006B4A136843F48073136000F02DFB064648
:10137400674B1B6813F4807FC8D100F025FB801BEA
:101384000228F5D90320B2E0624A136F43F0010347
:101394001367C9E75F4B1A6F42F004021A671A6FAA
:1013A40042F001021A67BFE700F00EFB0646594BF4
:1013B4001B6F13F0020F08D000F006FB801B41F2F4
:1013C40088339842F3D9032091E0EDB9A369002B47
:1013D40000F08C804F4A926802F00C02082A54D024
:1013E400022B17D04C4B00221A6600F0EDFA04468B
:1013F400484B1B6813F0007F45D000F0E5FA001B52
:101404000228F5D9032072E0424A136C23F080537A
:101414001364DBE7404B00221A6600F0D5FA054658
:101424003C4B1B6813F0007F06D000F0CDFA401B44
:101434000228F5D903205AE0E369226A1343626A59
:1014440043EA8213A26A5208013A43EA0243E26A77
:1014540043EA0263226B43EA02732E4A53602E4B23
:1014640001221A6600F0B0FA04462A4B1B6813F0F6
:10147400007F06D100F0A8FA001B0228F5D903204A
:1014840035E0002033E0002031E0012B31D0214B46
:101494005B6803F48001E26991422CD103F03F02BE
:1014A400216A8A4229D1616A47F6C0721A40B2EBB6
:1014B400811F24D103F44031A26A5208013AB1EBEE
:1014C400024F1ED103F07062E16AB2EB016F1AD1D0
:1014D40003F0E043226BB3EB027F16D1002006E059
:1014E40001207047012002E0012000E0002002B04A
:1014F40070BD0120FBE70120F9E70120F7E7012097
:10150400F5E70120F3E70120F1E70120EFE700BF51
:1015140000700040003802400000474200230F2BB7
:1015240000F2E38070B582B065E085684FEA430E4F
:10153400032404FA0EF425EA0405CC6804FA0EF434
:101544002C438460446824EA02044A68C2F300120B
:101554009A40224342605CE0DC08083450F82420BE
:1015640003F00705AD004FF00F0E0EFA05FE22EA58
:101574000E0E0A69AA4042EA0E0240F824205CE0FA
:10158400062200E0002202FA0EF22A430234574DEA
:1015940045F82420564A94686FEA0C0224EA0C05A4
:1015A4004E6816F4801F01D04CEA0405504CA56027
:1015B400E46802EA04054E6816F4001F01D04CEA00
:1015C40004054B4CE560646802EA04054E6816F4B1
:1015D400003F01D04CEA0405454C65602468224074
:1015E4004D6815F4803F01D04CEA0402404C22605F
:1015F40001330F2B77D801229A400C6804EA020CBD
:1016040032EA0404F4D14C6804F00304013C012CD4
:101614008BD94A6802F00302032A09D0C4685D002A
:101624000322AA4024EA02048A68AA402243C26030
:101634004A6802F00302022A8ED004684FEA430E7D
:10164400032202FA0EF224EA02044A6802F00302B8
:1016540002FA0EF2224302604A6812F4403FC7D0F5
:1016640000220192234A546C44F480445464526C22
:1016740002F480420192019A9C08A51C1B4A52F86C
:10168400255003F0030E4FEA8E0E0F2202FA0EF2DB
:1016940025EA0205184A90423FF474AF02F58062CD
:1016A400904216D002F58062904214D002F5806216
:1016B400904212D002F58062904210D002F580620E
:1016C40090420ED002F5806290423FF459AF072257
:1016D40059E7012257E7022255E7032253E7042280
:1016E40051E705224FE702B070BD70470038014052
:1016F400003C014000380240000002400AB1816110
:10170400704709048161704770B50446866D00F026
:101714005BF994F83530DBB2022B06D08023636585
:10172400002384F83430012070BD05462268136814
:1017340023F0160313602268536923F08003536176
:10174400236CE3B12268136823F008031360226852
:10175400136823F00103136023681B6813F0010F5F
:1017640011D000F031F9431B052BF5D92023636513
:10177400032084F83500002384F83430D4E7A36CC4
:10178400002BDFD1E3E7E26D3F239340B3600123F5
:1017940084F83530002084F83400C5E790F83530FB
:1017A400DBB2022B03D0802343650120704705235D
:1017B40080F835300268136823F0010313600020B9
:1017C4007047000010B582B000230193194B1A6CC6
:1017D40042F080521A641B6C03F080530193019B06
:1017E400154B01221A6400F0EFF80446134B5B68B2
:1017F40013F4803F08D100F0E7F8001BB0F57A7FBE
:10180400F4D9032002B010BD0B4B01225A6400F03E
:10181400DBF80446094B5B6813F4003F07D100F082
:10182400D3F8001BB0F57A7FF4D90320EAE700204F
:10183400E8E700BF0038024000000E42007000409C
:10184400002808DB0901C9B200F1604000F56140DD
:1018540080F80013704700F00F000901C9B2014B72
:101864001954704714ED00E000B500F00700C0F112
:10187400070CBCF1040F28BF4FF0040C031D062B0A
:101884000FD9C31E4FF0FF3E0EFA0CF021EA0001FF
:1018940099400EFA03FE22EA0E0241EA02005DF8C4
:1018A40004FB0023EEE70000074AD36823F4E06357
:1018B4001B041B0C000200F4E060034343F0BF630D
:1018C40043F40033D360704700ED00E010B50446E4
:1018D400054BD868C0F30220FFF7C6FF0146204637
:1018E400FFF7AEFF10BD00BF00ED00E0002807DBEE
:1018F40000F01F02400901239340024A42F82030BD
:10190400704700BF00E100E00138B0F1807F0BD2E6
:101914004FF0E0235861054AF02182F8231000209B
:10192400986107221A6170470120704700ED00E0BA
:1019340010B504460E4B1A784FF47A73B3FBF2F3E6
:101944000C4A1068B0FBF3F0FFF7DEFF68B90F2C08
:1019540001D901200AE0002221464FF0FF30FFF7B1
:10196400B5FF054B1C60002000E0012010BD00BF46
:1019740012000020180000201400002008B50B4BB2
:101984001A6842F400721A601A6842F480621A609B
:101994001A6842F480721A600320FFF785FF002062
:1019A400FFF7C6FFFEF7ACFD002008BD003C024077
:1019B400034A1168034B1B780B441360704700BF44
:1019C4005001002012000020014B1868704700BF2E
:1019D40050010020034AD2F8883043F47003C2F85F
:1019E4008830704700ED00E0DFF834D00D480E4930
:1019F4000E4A002302E0D458C4500433C4188C4265
:101A0400F9D30B4A0B4C002301E013600432A242C9
:101A1400FBD3FFF7DFFF00F019F8FEF739FD70473D
:101A240000000220000000201C000020941D00087B
:101A34001C00002054010020FEE7024403469342A8
:101A440000D1704703F8011BF9E7000070B50D4D94
:101A54000D4C641BA4100026A64209D10B4D0C4C5E
:101A640000F076F9641BA4100026A64205D170BDCF
:101A740055F8043B98470136EEE755F8043B984780
:101A84000136F2E78C1D00088C1D00088C1D00082F
:101A9400901D00082DE9F047089D0C46002B4ED1FF
:101AA40094468C458646B2FA82F262D94AB1C2F1B2
:101AB4002003914020FA03F30CFA02FC194300FAC4
:101AC40002FE4FEA1C471FFA8CF6B1FBF7F44FEA0B
:101AD4001E4307FB141143EA014304FB06F1994238
:101AE4000AD91CEB030304F1FF3080F01281994200
:101AF40040F20F81023C6344591A1FFA8EF3B1FB82
:101B0400F7F007FB101143EA014300FB06F69E427F
:101B14000AD91CEB030300F1FF3180F0FC809E42E4
:101B240040F2F980634402389B1B40EA04400021E0
:101B34001DB1D3400022C5E90032BDE8F0878B42D5
:101B440005D90DB1C5E9000100210846F5E7B3FA4E
:101B540083F1002946D1A34202D39042C0F0F08021
:101B6400861A64EB03030120002DE6D0C5E9006367
:101B7400E3E7002A40F09080A1EB0C044FEA1C48F4
:101B84001FFA8CF70121B4FBF8F64FEA1E4308FB59
:101B9400164443EA044307FB06F0984208D91CEBB9
:101BA400030306F1FF3402D2984200F2CD802646A8
:101BB4001C1A1FFA8EF3B4FBF8F008FB104443EA36
:101BC400044300FB07F79F4208D91CEB030300F111
:101BD400FF3402D29F4200F2B0802046DB1B40EA71
:101BE4000640A5E7C1F120068B4022FA06F71F4301
:101BF40020FA06FC04FA01F343EA0C03F44000FA69
:101C040001F8380C4FEA1349B4FBF0FE1FFA87FCC5
:101C140000FB1E4449EA04440EFB0CF9A14502FAF8
:101C240001F20AD93C190EF1FF3A80F08480A145F3
:101C340040F28180AEF1020E3C44A4EB09041FFA89
:101C440083F9B4FBF0F300FB134449EA044403FBB7
:101C54000CFCA44507D93C1903F1FF3067D2A44515
:101C640065D9023B3C4443EA0E40A0FB0293A4EB3B
:101C74000C049C42CE469C4651D34ED055B1B8EB91
:101C84000E0364EB0C0404FA06F6CB401E43CC406E
:101C9400C5E90064002150E7C2F1200320FA03F1F2
:101CA4000CFA02FC24FA03F394400C434FEA1C4858
:101CB40000FA02FE1FFA8CF7B3FBF8F008FB1031B0
:101CC400230C43EA014300FB07F1994208D91CEBBA
:101CD400030300F1FF362CD299422AD90238634417
:101CE4005B1AA4B2B3FBF8F108FB113344EA0344D2
:101CF40001FB07F3A34208D91CEB040401F1FF36EE
:101D040013D2A34211D902396444E41A41EA0041CE
:101D140039E70446F0E6084606E7C845AED2B9EB13
:101D2400020E63EB070C0138A8E73146EDE70346E2
:101D340099E73046D4E7D6467FE7634402384DE757
:101D44000646234608460FE7023E634430E700BFD9
:101D5400F8B500BFF8BC08BC9E467047F8B500BF94
:081D6400F8BC08BC9E46704764
:101D6C00000000000102030400000000000000005D
:081D7C00010203040607080937
:081D840014FDFF7F01000000C7
:041D8C0061020008E8
:041D9000390200080C
:101D940048656C6C6F2066726F6D2053544D3332FE
:0C1DA4000A000100100000000024F40000
:04000005080019EDE9
:00000001FF
